{"abi":[{"inputs":[],"stateMutability":"nonpayable","type":"constructor","name":"constructor"},{"anonymous":false,"inputs":[{"indexed":true,"internalType":"address","name":"_owner","type":"address"},{"indexed":true,"internalType":"address","name":"_approved","type":"address"},{"indexed":true,"internalType":"uint256","name":"_tokenId","type":"uint256"}],"name":"Approval","type":"event"},{"anonymous":false,"inputs":[{"indexed":true,"internalType":"address","name":"from","type":"address"},{"indexed":true,"internalType":"address","name":"to","type":"address"},{"indexed":true,"internalType":"uint256","name":"tokenId","type":"uint256"}],"name":"Transfer","type":"event"},{"inputs":[{"internalType":"uint256","name":"","type":"uint256"}],"name":"InnoByteNFTS","outputs":[{"internalType":"string","name":"","type":"string"}],"stateMutability":"view","type":"function"},{"inputs":[{"internalType":"address","name":"_to","type":"address"},{"internalType":"uint256","name":"tokenId","type":"uint256"}],"name":"approve","outputs":[],"stateMutability":"nonpayable","type":"function"},{"inputs":[{"internalType":"address","name":"_owner","type":"address"}],"name":"balanceOf","outputs":[{"internalType":"uint256","name":"","type":"uint256"}],"stateMutability":"view","type":"function"},{"inputs":[{"internalType":"string","name":"_innobyte","type":"string"}],"name":"mint","outputs":[],"stateMutability":"nonpayable","type":"function"},{"inputs":[],"name":"name","outputs":[{"internalType":"string","name":"","type":"string"}],"stateMutability":"view","type":"function"},{"inputs":[{"internalType":"uint256","name":"_tokenId","type":"uint256"}],"name":"ownerOf","outputs":[{"internalType":"address","name":"","type":"address"}],"stateMutability":"view","type":"function"},{"inputs":[{"internalType":"bytes4","name":"interfaceID","type":"bytes4"}],"name":"supportsInterface","outputs":[{"internalType":"bool","name":"","type":"bool"}],"stateMutability":"view","type":"function"},{"inputs":[],"name":"symbol","outputs":[{"internalType":"string","name":"","type":"string"}],"stateMutability":"view","type":"function"},{"inputs":[{"internalType":"uint256","name":"index","type":"uint256"}],"name":"tokenByIndex","outputs":[{"internalType":"uint256","name":"","type":"uint256"}],"stateMutability":"view","type":"function"},{"inputs":[{"internalType":"address","name":"owner","type":"address"},{"internalType":"uint256","name":"index","type":"uint256"}],"name":"tokenOfOwnerByIndex","outputs":[{"internalType":"uint256","name":"","type":"uint256"}],"stateMutability":"view","type":"function"},{"inputs":[],"name":"totalSupply","outputs":[{"internalType":"uint256","name":"","type":"uint256"}],"stateMutability":"view","type":"function"},{"inputs":[{"internalType":"address","name":"_from","type":"address"},{"internalType":"address","name":"_to","type":"address"},{"internalType":"uint256","name":"_tokenId","type":"uint256"}],"name":"transferFrom","outputs":[],"stateMutability":"nonpayable","type":"function"}],"bytecode":"60806040523480156200001157600080fd5b5060405180604001604052806008815260200167496e6e6f4279746560c01b815250604051806040016040528060048152602001631353d51560e21b8152508181620000837f01ffc9a7a5cef8baa21ed3c5c0d7e23accb804b619e9333b597f47a0d84076e26200013c60201b60201c565b620000ae7f6c5b7360b116f8fd1d2a1ccb905de5c6a9e91e31b88b8db3cd997e184f357e9f6200013c565b8151620000c3906001906020850190620001c0565b508051620000d9906002906020840190620001c0565b506200010991507f92d8a794d910422f7549620ed7a8f75c2c42d18032da05c61ed89586344e965e90506200013c565b620001347f2aa3f4710f58b303977da296b62cadae054c8971d883298d8ed6c6c0565c13c16200013c565b5050620002a3565b6001600160e01b031980821614156200019b5760405162461bcd60e51b815260206004820152601960248201527f496e76616c696420696e74657266616365207265717565737400000000000000604482015260640160405180910390fd5b6001600160e01b0319166000908152602081905260409020805460ff19166001179055565b828054620001ce9062000266565b90600052602060002090601f016020900481019282620001f257600085556200023d565b82601f106200020d57805160ff19168380011785556200023d565b828001600101855582156200023d579182015b828111156200023d57825182559160200191906001019062000220565b506200024b9291506200024f565b5090565b5b808211156200024b576000815560010162000250565b600181811c908216806200027b57607f821691505b602082108114156200029d57634e487b7160e01b600052602260045260246000fd5b50919050565b610f4380620002b36000396000f3fe608060405234801561001057600080fd5b50600436106100b45760003560e01c80632f745c59116100715780632f745c591461015d5780634f6ccce7146101705780636352211e1461018357806370a08231146101ae57806395d89b41146101c1578063d85d3d27146101c957600080fd5b806301ffc9a7146100b957806306fdde03146100fb578063095ea7b31461011057806318160ddd1461012557806323b872dd1461013757806328afd7001461014a575b600080fd5b6100e66100c7366004610c4a565b6001600160e01b03191660009081526020819052604090205460ff1690565b60405190151581526020015b60405180910390f35b6101036101dc565b6040516100f29190610cab565b61012361011e366004610cfa565b61026e565b005b6006545b6040519081526020016100f2565b610123610145366004610d24565b6103a0565b610103610158366004610d60565b6103c3565b61012961016b366004610cfa565b61046f565b61012961017e366004610d60565b610505565b610196610191366004610d60565b610583565b6040516001600160a01b0390911681526020016100f2565b6101296101bc366004610d79565b6105e0565b610103610648565b6101236101d7366004610daa565b610657565b6060600180546101eb90610e5b565b80601f016020809104026020016040519081016040528092919081815260200182805461021790610e5b565b80156102645780601f1061023957610100808354040283529160200191610264565b820191906000526020600020905b81548152906001019060200180831161024757829003601f168201915b5050505050905090565b600061027982610583565b9050806001600160a01b0316836001600160a01b031614156102ec5760405162461bcd60e51b815260206004820152602160248201527f4572726f72202d20617070726f76616c20746f2063757272656e74206f776e656044820152603960f91b60648201526084015b60405180910390fd5b336001600160a01b038216146103445760405162461bcd60e51b815260206004820152601c60248201527f43757272656e742063616c6c6572206d757374206265206f776e65720000000060448201526064016102e3565b60008281526005602052604080822080546001600160a01b0319166001600160a01b0387811691821790925591518593918516917f8c5be1e5ebec7d5bd14f71427d1e84f3dd0314c0f7b2291e5b200ac8c7c3b92591a4505050565b6103aa338261075f565b6103b357600080fd5b6103be8383836107dc565b505050565b600a81815481106103d357600080fd5b9060005260206000200160009150905080546103ee90610e5b565b80601f016020809104026020016040519081016040528092919081815260200182805461041a90610e5b565b80156104675780601f1061043c57610100808354040283529160200191610467565b820191906000526020600020905b81548152906001019060200180831161044a57829003601f168201915b505050505081565b600061047a836105e0565b82106104c85760405162461bcd60e51b815260206004820152601960248201527f4f776e657220696e646578206f7574206f6620626f756e64730000000000000060448201526064016102e3565b6001600160a01b03831660009081526008602052604090208054839081106104f2576104f2610e96565b9060005260206000200154905092915050565b600061051060065490565b821061055e5760405162461bcd60e51b815260206004820152601a60248201527f476c6f62616c20696e646578206f7574206f6620626f756e647300000000000060448201526064016102e3565b6006828154811061057157610571610e96565b90600052602060002001549050919050565b6000818152600360205260408120546001600160a01b0316806105da5760405162461bcd60e51b815260206004820152600f60248201526e41646472657373206973207a65726f60881b60448201526064016102e3565b92915050565b60006001600160a01b03821661062a5760405162461bcd60e51b815260206004820152600f60248201526e41646472657373206973207a65726f60881b60448201526064016102e3565b6001600160a01b0382166000908152600460205260409020546105da565b6060600280546101eb90610e5b565b600b816040516106679190610eac565b9081526040519081900360200190205460ff16156106c75760405162461bcd60e51b815260206004820152601c60248201527f4572726f72202d20746f6b656e20616c7265616479206578697374730000000060448201526064016102e3565b600a8054600181018255600091909152815161070a917fc65a7bb8d6351c1cf70c95a316cc6a92839c986682d98bc35f958f4883f9d2a801906020840190610bb1565b50600a5460009061071d90600190610ede565b9050610729338261096a565b6001600b8360405161073b9190610eac565b908152604051908190036020019020805491151560ff199092169190911790555050565b6000818152600360205260408120546001600160a01b03166107ba5760405162461bcd60e51b81526020600482015260146024820152731d1bdad95b88191bd95cc81b9bdd08195e1a5cdd60621b60448201526064016102e3565b60006107c583610583565b6001600160a01b0385811691161491505092915050565b6001600160a01b0382166108465760405162461bcd60e51b815260206004820152602b60248201527f4572726f72202d20455243373231205472616e7366657220746f20746865207a60448201526a65726f206164647265737360a81b60648201526084016102e3565b826001600160a01b031661085982610583565b6001600160a01b0316146108cc5760405162461bcd60e51b815260206004820152603460248201527f547279696e6720746f207472616e73666572206120746f6b656e20746865206160448201527364647265737320646f6573206e6f74206f776e2160601b60648201526084016102e3565b6001600160a01b03831660009081526004602052604090206108ed906109ef565b6001600160a01b038216600090815260046020526040902061090e90610a00565b60008181526003602052604080822080546001600160a01b0319166001600160a01b0386811691821790925591518493918716917fddf252ad1be2c89b69c2b068fc378daa952ba7f163c4a11628f55a4df523b3ef91a4505050565b6109748282610a1d565b6001600160a01b039190911660009081526008602090815260408083208054858552600984528285208190556001808201835591855283852001859055600680548686526007909452918420839055820181559091527ff652222313e28459528d920b65115c16c04f3efc82aaedc97be59f3f377c0d3f0155565b80546109fc906001610b4b565b9055565b6001816000016000828254610a159190610ef5565b909155505050565b6001600160a01b038216610a735760405162461bcd60e51b815260206004820152601e60248201527f455243373231206d696e74696e6720746f207a65726f2061646472657373000060448201526064016102e3565b6000818152600360205260409020546001600160a01b031615610ad05760405162461bcd60e51b815260206004820152601560248201527445524337323120616c72656164792065786973747360581b60448201526064016102e3565b600081815260036020908152604080832080546001600160a01b0319166001600160a01b038716908117909155835260049091529020610b0f90610a00565b60405181906001600160a01b038416906000907fddf252ad1be2c89b69c2b068fc378daa952ba7f163c4a11628f55a4df523b3ef908290a45050565b600082821115610b9d5760405162461bcd60e51b815260206004820152601e60248201527f536166656d6174683a207375627472616374696f6e206f766572666c6f77000060448201526064016102e3565b6000610ba98385610ede565b949350505050565b828054610bbd90610e5b565b90600052602060002090601f016020900481019282610bdf5760008555610c25565b82601f10610bf857805160ff1916838001178555610c25565b82800160010185558215610c25579182015b82811115610c25578251825591602001919060010190610c0a565b50610c31929150610c35565b5090565b5b80821115610c315760008155600101610c36565b600060208284031215610c5c57600080fd5b81356001600160e01b031981168114610c7457600080fd5b9392505050565b60005b83811015610c96578181015183820152602001610c7e565b83811115610ca5576000848401525b50505050565b6020815260008251806020840152610cca816040850160208701610c7b565b601f01601f19169190910160400192915050565b80356001600160a01b0381168114610cf557600080fd5b919050565b60008060408385031215610d0d57600080fd5b610d1683610cde565b946020939093013593505050565b600080600060608486031215610d3957600080fd5b610d4284610cde565b9250610d5060208501610cde565b9150604084013590509250925092565b600060208284031215610d7257600080fd5b5035919050565b600060208284031215610d8b57600080fd5b610c7482610cde565b634e487b7160e01b600052604160045260246000fd5b600060208284031215610dbc57600080fd5b813567ffffffffffffffff80821115610dd457600080fd5b818401915084601f830112610de857600080fd5b813581811115610dfa57610dfa610d94565b604051601f8201601f19908116603f01168101908382118183101715610e2257610e22610d94565b81604052828152876020848701011115610e3b57600080fd5b826020860160208301376000928101602001929092525095945050505050565b600181811c90821680610e6f57607f821691505b60208210811415610e9057634e487b7160e01b600052602260045260246000fd5b50919050565b634e487b7160e01b600052603260045260246000fd5b60008251610ebe818460208701610c7b565b9190910192915050565b634e487b7160e01b600052601160045260246000fd5b600082821015610ef057610ef0610ec8565b500390565b60008219821115610f0857610f08610ec8565b50019056fea26469706673582212205e37b33bd092bc9d298c4be2893ed143fff1fbbab59942037094a2a8a2079c3f64736f6c634300080a0033","bytecodeSha1":"c264ac025a0d6dbaee287ced648a2da6eb721da4","compiler":{"evm_version":"istanbul","optimizer":{"enabled":true,"runs":200},"version":"0.8.10+commit.fc410830"},"contractName":"InnoByte","language":"Solidity","natspec":{"kind":"dev","methods":{},"version":1},"opcodes":"PUSH1 0x80 PUSH1 0x40 MSTORE CALLVALUE DUP1 ISZERO PUSH2 0x10 JUMPI PUSH1 0x0 DUP1 REVERT JUMPDEST POP PUSH1 0x4 CALLDATASIZE LT PUSH2 0xB4 JUMPI PUSH1 0x0 CALLDATALOAD PUSH1 0xE0 SHR DUP1 PUSH4 0x2F745C59 GT PUSH2 0x71 JUMPI DUP1 PUSH4 0x2F745C59 EQ PUSH2 0x15D JUMPI DUP1 PUSH4 0x4F6CCCE7 EQ PUSH2 0x170 JUMPI DUP1 PUSH4 0x6352211E EQ PUSH2 0x183 JUMPI DUP1 PUSH4 0x70A08231 EQ PUSH2 0x1AE JUMPI DUP1 PUSH4 0x95D89B41 EQ PUSH2 0x1C1 JUMPI DUP1 PUSH4 0xD85D3D27 EQ PUSH2 0x1C9 JUMPI PUSH1 0x0 DUP1 REVERT JUMPDEST DUP1 PUSH4 0x1FFC9A7 EQ PUSH2 0xB9 JUMPI DUP1 PUSH4 0x6FDDE03 EQ PUSH2 0xFB JUMPI DUP1 PUSH4 0x95EA7B3 EQ PUSH2 0x110 JUMPI DUP1 PUSH4 0x18160DDD EQ PUSH2 0x125 JUMPI DUP1 PUSH4 0x23B872DD EQ PUSH2 0x137 JUMPI DUP1 PUSH4 0x28AFD700 EQ PUSH2 0x14A JUMPI JUMPDEST PUSH1 0x0 DUP1 REVERT JUMPDEST PUSH2 0xE6 PUSH2 0xC7 CALLDATASIZE PUSH1 0x4 PUSH2 0xC4A JUMP JUMPDEST PUSH1 0x1 PUSH1 0x1 PUSH1 0xE0 SHL SUB NOT AND PUSH1 0x0 SWAP1 DUP2 MSTORE PUSH1 0x20 DUP2 SWAP1 MSTORE PUSH1 0x40 SWAP1 KECCAK256 SLOAD PUSH1 0xFF AND SWAP1 JUMP JUMPDEST PUSH1 0x40 MLOAD SWAP1 ISZERO ISZERO DUP2 MSTORE PUSH1 0x20 ADD JUMPDEST PUSH1 0x40 MLOAD DUP1 SWAP2 SUB SWAP1 RETURN JUMPDEST PUSH2 0x103 PUSH2 0x1DC JUMP JUMPDEST PUSH1 0x40 MLOAD PUSH2 0xF2 SWAP2 SWAP1 PUSH2 0xCAB JUMP JUMPDEST PUSH2 0x123 PUSH2 0x11E CALLDATASIZE PUSH1 0x4 PUSH2 0xCFA JUMP JUMPDEST PUSH2 0x26E JUMP JUMPDEST STOP JUMPDEST PUSH1 0x6 SLOAD JUMPDEST PUSH1 0x40 MLOAD SWAP1 DUP2 MSTORE PUSH1 0x20 ADD PUSH2 0xF2 JUMP JUMPDEST PUSH2 0x123 PUSH2 0x145 CALLDATASIZE PUSH1 0x4 PUSH2 0xD24 JUMP JUMPDEST PUSH2 0x3A0 JUMP JUMPDEST PUSH2 0x103 PUSH2 0x158 CALLDATASIZE PUSH1 0x4 PUSH2 0xD60 JUMP JUMPDEST PUSH2 0x3C3 JUMP JUMPDEST PUSH2 0x129 PUSH2 0x16B CALLDATASIZE PUSH1 0x4 PUSH2 0xCFA JUMP JUMPDEST PUSH2 0x46F JUMP JUMPDEST PUSH2 0x129 PUSH2 0x17E CALLDATASIZE PUSH1 0x4 PUSH2 0xD60 JUMP JUMPDEST PUSH2 0x505 JUMP JUMPDEST PUSH2 0x196 PUSH2 0x191 CALLDATASIZE PUSH1 0x4 PUSH2 0xD60 JUMP JUMPDEST PUSH2 0x583 JUMP JUMPDEST PUSH1 0x40 MLOAD PUSH1 0x1 PUSH1 0x1 PUSH1 0xA0 SHL SUB SWAP1 SWAP2 AND DUP2 MSTORE PUSH1 0x20 ADD PUSH2 0xF2 JUMP JUMPDEST PUSH2 0x129 PUSH2 0x1BC CALLDATASIZE PUSH1 0x4 PUSH2 0xD79 JUMP JUMPDEST PUSH2 0x5E0 JUMP JUMPDEST PUSH2 0x103 PUSH2 0x648 JUMP JUMPDEST PUSH2 0x123 PUSH2 0x1D7 CALLDATASIZE PUSH1 0x4 PUSH2 0xDAA JUMP JUMPDEST PUSH2 0x657 JUMP JUMPDEST PUSH1 0x60 PUSH1 0x1 DUP1 SLOAD PUSH2 0x1EB SWAP1 PUSH2 0xE5B JUMP JUMPDEST DUP1 PUSH1 0x1F ADD PUSH1 0x20 DUP1 SWAP2 DIV MUL PUSH1 0x20 ADD PUSH1 0x40 MLOAD SWAP1 DUP2 ADD PUSH1 0x40 MSTORE DUP1 SWAP3 SWAP2 SWAP1 DUP2 DUP2 MSTORE PUSH1 0x20 ADD DUP3 DUP1 SLOAD PUSH2 0x217 SWAP1 PUSH2 0xE5B JUMP JUMPDEST DUP1 ISZERO PUSH2 0x264 JUMPI DUP1 PUSH1 0x1F LT PUSH2 0x239 JUMPI PUSH2 0x100 DUP1 DUP4 SLOAD DIV MUL DUP4 MSTORE SWAP2 PUSH1 0x20 ADD SWAP2 PUSH2 0x264 JUMP JUMPDEST DUP3 ADD SWAP2 SWAP1 PUSH1 0x0 MSTORE PUSH1 0x20 PUSH1 0x0 KECCAK256 SWAP1 JUMPDEST DUP2 SLOAD DUP2 MSTORE SWAP1 PUSH1 0x1 ADD SWAP1 PUSH1 0x20 ADD DUP1 DUP4 GT PUSH2 0x247 JUMPI DUP3 SWAP1 SUB PUSH1 0x1F AND DUP3 ADD SWAP2 JUMPDEST POP POP POP POP POP SWAP1 POP SWAP1 JUMP JUMPDEST PUSH1 0x0 PUSH2 0x279 DUP3 PUSH2 0x583 JUMP JUMPDEST SWAP1 POP DUP1 PUSH1 0x1 PUSH1 0x1 PUSH1 0xA0 SHL SUB AND DUP4 PUSH1 0x1 PUSH1 0x1 PUSH1 0xA0 SHL SUB AND EQ ISZERO PUSH2 0x2EC JUMPI PUSH1 0x40 MLOAD PUSH3 0x461BCD PUSH1 0xE5 SHL DUP2 MSTORE PUSH1 0x20 PUSH1 0x4 DUP3 ADD MSTORE PUSH1 0x21 PUSH1 0x24 DUP3 ADD MSTORE PUSH32 0x4572726F72202D20617070726F76616C20746F2063757272656E74206F776E65 PUSH1 0x44 DUP3 ADD MSTORE PUSH1 0x39 PUSH1 0xF9 SHL PUSH1 0x64 DUP3 ADD MSTORE PUSH1 0x84 ADD JUMPDEST PUSH1 0x40 MLOAD DUP1 SWAP2 SUB SWAP1 REVERT JUMPDEST CALLER PUSH1 0x1 PUSH1 0x1 PUSH1 0xA0 SHL SUB DUP3 AND EQ PUSH2 0x344 JUMPI PUSH1 0x40 MLOAD PUSH3 0x461BCD PUSH1 0xE5 SHL DUP2 MSTORE PUSH1 0x20 PUSH1 0x4 DUP3 ADD MSTORE PUSH1 0x1C PUSH1 0x24 DUP3 ADD MSTORE PUSH32 0x43757272656E742063616C6C6572206D757374206265206F776E657200000000 PUSH1 0x44 DUP3 ADD MSTORE PUSH1 0x64 ADD PUSH2 0x2E3 JUMP JUMPDEST PUSH1 0x0 DUP3 DUP2 MSTORE PUSH1 0x5 PUSH1 0x20 MSTORE PUSH1 0x40 DUP1 DUP3 KECCAK256 DUP1 SLOAD PUSH1 0x1 PUSH1 0x1 PUSH1 0xA0 SHL SUB NOT AND PUSH1 0x1 PUSH1 0x1 PUSH1 0xA0 SHL SUB DUP8 DUP2 AND SWAP2 DUP3 OR SWAP1 SWAP3 SSTORE SWAP2 MLOAD DUP6 SWAP4 SWAP2 DUP6 AND SWAP2 PUSH32 0x8C5BE1E5EBEC7D5BD14F71427D1E84F3DD0314C0F7B2291E5B200AC8C7C3B925 SWAP2 LOG4 POP POP POP JUMP JUMPDEST PUSH2 0x3AA CALLER DUP3 PUSH2 0x75F JUMP JUMPDEST PUSH2 0x3B3 JUMPI PUSH1 0x0 DUP1 REVERT JUMPDEST PUSH2 0x3BE DUP4 DUP4 DUP4 PUSH2 0x7DC JUMP JUMPDEST POP POP POP JUMP JUMPDEST PUSH1 0xA DUP2 DUP2 SLOAD DUP2 LT PUSH2 0x3D3 JUMPI PUSH1 0x0 DUP1 REVERT JUMPDEST SWAP1 PUSH1 0x0 MSTORE PUSH1 0x20 PUSH1 0x0 KECCAK256 ADD PUSH1 0x0 SWAP2 POP SWAP1 POP DUP1 SLOAD PUSH2 0x3EE SWAP1 PUSH2 0xE5B JUMP JUMPDEST DUP1 PUSH1 0x1F ADD PUSH1 0x20 DUP1 SWAP2 DIV MUL PUSH1 0x20 ADD PUSH1 0x40 MLOAD SWAP1 DUP2 ADD PUSH1 0x40 MSTORE DUP1 SWAP3 SWAP2 SWAP1 DUP2 DUP2 MSTORE PUSH1 0x20 ADD DUP3 DUP1 SLOAD PUSH2 0x41A SWAP1 PUSH2 0xE5B JUMP JUMPDEST DUP1 ISZERO PUSH2 0x467 JUMPI DUP1 PUSH1 0x1F LT PUSH2 0x43C JUMPI PUSH2 0x100 DUP1 DUP4 SLOAD DIV MUL DUP4 MSTORE SWAP2 PUSH1 0x20 ADD SWAP2 PUSH2 0x467 JUMP JUMPDEST DUP3 ADD SWAP2 SWAP1 PUSH1 0x0 MSTORE PUSH1 0x20 PUSH1 0x0 KECCAK256 SWAP1 JUMPDEST DUP2 SLOAD DUP2 MSTORE SWAP1 PUSH1 0x1 ADD SWAP1 PUSH1 0x20 ADD DUP1 DUP4 GT PUSH2 0x44A JUMPI DUP3 SWAP1 SUB PUSH1 0x1F AND DUP3 ADD SWAP2 JUMPDEST POP POP POP POP POP DUP2 JUMP JUMPDEST PUSH1 0x0 PUSH2 0x47A DUP4 PUSH2 0x5E0 JUMP JUMPDEST DUP3 LT PUSH2 0x4C8 JUMPI PUSH1 0x40 MLOAD PUSH3 0x461BCD PUSH1 0xE5 SHL DUP2 MSTORE PUSH1 0x20 PUSH1 0x4 DUP3 ADD MSTORE PUSH1 0x19 PUSH1 0x24 DUP3 ADD MSTORE PUSH32 0x4F776E657220696E646578206F7574206F6620626F756E647300000000000000 PUSH1 0x44 DUP3 ADD MSTORE PUSH1 0x64 ADD PUSH2 0x2E3 JUMP JUMPDEST PUSH1 0x1 PUSH1 0x1 PUSH1 0xA0 SHL SUB DUP4 AND PUSH1 0x0 SWAP1 DUP2 MSTORE PUSH1 0x8 PUSH1 0x20 MSTORE PUSH1 0x40 SWAP1 KECCAK256 DUP1 SLOAD DUP4 SWAP1 DUP2 LT PUSH2 0x4F2 JUMPI PUSH2 0x4F2 PUSH2 0xE96 JUMP JUMPDEST SWAP1 PUSH1 0x0 MSTORE PUSH1 0x20 PUSH1 0x0 KECCAK256 ADD SLOAD SWAP1 POP SWAP3 SWAP2 POP POP JUMP JUMPDEST PUSH1 0x0 PUSH2 0x510 PUSH1 0x6 SLOAD SWAP1 JUMP JUMPDEST DUP3 LT PUSH2 0x55E JUMPI PUSH1 0x40 MLOAD PUSH3 0x461BCD PUSH1 0xE5 SHL DUP2 MSTORE PUSH1 0x20 PUSH1 0x4 DUP3 ADD MSTORE PUSH1 0x1A PUSH1 0x24 DUP3 ADD MSTORE PUSH32 0x476C6F62616C20696E646578206F7574206F6620626F756E6473000000000000 PUSH1 0x44 DUP3 ADD MSTORE PUSH1 0x64 ADD PUSH2 0x2E3 JUMP JUMPDEST PUSH1 0x6 DUP3 DUP2 SLOAD DUP2 LT PUSH2 0x571 JUMPI PUSH2 0x571 PUSH2 0xE96 JUMP JUMPDEST SWAP1 PUSH1 0x0 MSTORE PUSH1 0x20 PUSH1 0x0 KECCAK256 ADD SLOAD SWAP1 POP SWAP2 SWAP1 POP JUMP JUMPDEST PUSH1 0x0 DUP2 DUP2 MSTORE PUSH1 0x3 PUSH1 0x20 MSTORE PUSH1 0x40 DUP2 KECCAK256 SLOAD PUSH1 0x1 PUSH1 0x1 PUSH1 0xA0 SHL SUB AND DUP1 PUSH2 0x5DA JUMPI PUSH1 0x40 MLOAD PUSH3 0x461BCD PUSH1 0xE5 SHL DUP2 MSTORE PUSH1 0x20 PUSH1 0x4 DUP3 ADD MSTORE PUSH1 0xF PUSH1 0x24 DUP3 ADD MSTORE PUSH15 0x41646472657373206973207A65726F PUSH1 0x88 SHL PUSH1 0x44 DUP3 ADD MSTORE PUSH1 0x64 ADD PUSH2 0x2E3 JUMP JUMPDEST SWAP3 SWAP2 POP POP JUMP JUMPDEST PUSH1 0x0 PUSH1 0x1 PUSH1 0x1 PUSH1 0xA0 SHL SUB DUP3 AND PUSH2 0x62A JUMPI PUSH1 0x40 MLOAD PUSH3 0x461BCD PUSH1 0xE5 SHL DUP2 MSTORE PUSH1 0x20 PUSH1 0x4 DUP3 ADD MSTORE PUSH1 0xF PUSH1 0x24 DUP3 ADD MSTORE PUSH15 0x41646472657373206973207A65726F PUSH1 0x88 SHL PUSH1 0x44 DUP3 ADD MSTORE PUSH1 0x64 ADD PUSH2 0x2E3 JUMP JUMPDEST PUSH1 0x1 PUSH1 0x1 PUSH1 0xA0 SHL SUB DUP3 AND PUSH1 0x0 SWAP1 DUP2 MSTORE PUSH1 0x4 PUSH1 0x20 MSTORE PUSH1 0x40 SWAP1 KECCAK256 SLOAD PUSH2 0x5DA JUMP JUMPDEST PUSH1 0x60 PUSH1 0x2 DUP1 SLOAD PUSH2 0x1EB SWAP1 PUSH2 0xE5B JUMP JUMPDEST PUSH1 0xB DUP2 PUSH1 0x40 MLOAD PUSH2 0x667 SWAP2 SWAP1 PUSH2 0xEAC JUMP JUMPDEST SWAP1 DUP2 MSTORE PUSH1 0x40 MLOAD SWAP1 DUP2 SWAP1 SUB PUSH1 0x20 ADD SWAP1 KECCAK256 SLOAD PUSH1 0xFF AND ISZERO PUSH2 0x6C7 JUMPI PUSH1 0x40 MLOAD PUSH3 0x461BCD PUSH1 0xE5 SHL DUP2 MSTORE PUSH1 0x20 PUSH1 0x4 DUP3 ADD MSTORE PUSH1 0x1C PUSH1 0x24 DUP3 ADD MSTORE PUSH32 0x4572726F72202D20746F6B656E20616C72656164792065786973747300000000 PUSH1 0x44 DUP3 ADD MSTORE PUSH1 0x64 ADD PUSH2 0x2E3 JUMP JUMPDEST PUSH1 0xA DUP1 SLOAD PUSH1 0x1 DUP2 ADD DUP3 SSTORE PUSH1 0x0 SWAP2 SWAP1 SWAP2 MSTORE DUP2 MLOAD PUSH2 0x70A SWAP2 PUSH32 0xC65A7BB8D6351C1CF70C95A316CC6A92839C986682D98BC35F958F4883F9D2A8 ADD SWAP1 PUSH1 0x20 DUP5 ADD SWAP1 PUSH2 0xBB1 JUMP JUMPDEST POP PUSH1 0xA SLOAD PUSH1 0x0 SWAP1 PUSH2 0x71D SWAP1 PUSH1 0x1 SWAP1 PUSH2 0xEDE JUMP JUMPDEST SWAP1 POP PUSH2 0x729 CALLER DUP3 PUSH2 0x96A JUMP JUMPDEST PUSH1 0x1 PUSH1 0xB DUP4 PUSH1 0x40 MLOAD PUSH2 0x73B SWAP2 SWAP1 PUSH2 0xEAC JUMP JUMPDEST SWAP1 DUP2 MSTORE PUSH1 0x40 MLOAD SWAP1 DUP2 SWAP1 SUB PUSH1 0x20 ADD SWAP1 KECCAK256 DUP1 SLOAD SWAP2 ISZERO ISZERO PUSH1 0xFF NOT SWAP1 SWAP3 AND SWAP2 SWAP1 SWAP2 OR SWAP1 SSTORE POP POP JUMP JUMPDEST PUSH1 0x0 DUP2 DUP2 MSTORE PUSH1 0x3 PUSH1 0x20 MSTORE PUSH1 0x40 DUP2 KECCAK256 SLOAD PUSH1 0x1 PUSH1 0x1 PUSH1 0xA0 SHL SUB AND PUSH2 0x7BA JUMPI PUSH1 0x40 MLOAD PUSH3 0x461BCD PUSH1 0xE5 SHL DUP2 MSTORE PUSH1 0x20 PUSH1 0x4 DUP3 ADD MSTORE PUSH1 0x14 PUSH1 0x24 DUP3 ADD MSTORE PUSH20 0x1D1BDAD95B88191BD95CC81B9BDD08195E1A5CDD PUSH1 0x62 SHL PUSH1 0x44 DUP3 ADD MSTORE PUSH1 0x64 ADD PUSH2 0x2E3 JUMP JUMPDEST PUSH1 0x0 PUSH2 0x7C5 DUP4 PUSH2 0x583 JUMP JUMPDEST PUSH1 0x1 PUSH1 0x1 PUSH1 0xA0 SHL SUB DUP6 DUP2 AND SWAP2 AND EQ SWAP2 POP POP SWAP3 SWAP2 POP POP JUMP JUMPDEST PUSH1 0x1 PUSH1 0x1 PUSH1 0xA0 SHL SUB DUP3 AND PUSH2 0x846 JUMPI PUSH1 0x40 MLOAD PUSH3 0x461BCD PUSH1 0xE5 SHL DUP2 MSTORE PUSH1 0x20 PUSH1 0x4 DUP3 ADD MSTORE PUSH1 0x2B PUSH1 0x24 DUP3 ADD MSTORE PUSH32 0x4572726F72202D20455243373231205472616E7366657220746F20746865207A PUSH1 0x44 DUP3 ADD MSTORE PUSH11 0x65726F2061646472657373 PUSH1 0xA8 SHL PUSH1 0x64 DUP3 ADD MSTORE PUSH1 0x84 ADD PUSH2 0x2E3 JUMP JUMPDEST DUP3 PUSH1 0x1 PUSH1 0x1 PUSH1 0xA0 SHL SUB AND PUSH2 0x859 DUP3 PUSH2 0x583 JUMP JUMPDEST PUSH1 0x1 PUSH1 0x1 PUSH1 0xA0 SHL SUB AND EQ PUSH2 0x8CC JUMPI PUSH1 0x40 MLOAD PUSH3 0x461BCD PUSH1 0xE5 SHL DUP2 MSTORE PUSH1 0x20 PUSH1 0x4 DUP3 ADD MSTORE PUSH1 0x34 PUSH1 0x24 DUP3 ADD MSTORE PUSH32 0x547279696E6720746F207472616E73666572206120746F6B656E207468652061 PUSH1 0x44 DUP3 ADD MSTORE PUSH20 0x64647265737320646F6573206E6F74206F776E21 PUSH1 0x60 SHL PUSH1 0x64 DUP3 ADD MSTORE PUSH1 0x84 ADD PUSH2 0x2E3 JUMP JUMPDEST PUSH1 0x1 PUSH1 0x1 PUSH1 0xA0 SHL SUB DUP4 AND PUSH1 0x0 SWAP1 DUP2 MSTORE PUSH1 0x4 PUSH1 0x20 MSTORE PUSH1 0x40 SWAP1 KECCAK256 PUSH2 0x8ED SWAP1 PUSH2 0x9EF JUMP JUMPDEST PUSH1 0x1 PUSH1 0x1 PUSH1 0xA0 SHL SUB DUP3 AND PUSH1 0x0 SWAP1 DUP2 MSTORE PUSH1 0x4 PUSH1 0x20 MSTORE PUSH1 0x40 SWAP1 KECCAK256 PUSH2 0x90E SWAP1 PUSH2 0xA00 JUMP JUMPDEST PUSH1 0x0 DUP2 DUP2 MSTORE PUSH1 0x3 PUSH1 0x20 MSTORE PUSH1 0x40 DUP1 DUP3 KECCAK256 DUP1 SLOAD PUSH1 0x1 PUSH1 0x1 PUSH1 0xA0 SHL SUB NOT AND PUSH1 0x1 PUSH1 0x1 PUSH1 0xA0 SHL SUB DUP7 DUP2 AND SWAP2 DUP3 OR SWAP1 SWAP3 SSTORE SWAP2 MLOAD DUP5 SWAP4 SWAP2 DUP8 AND SWAP2 PUSH32 0xDDF252AD1BE2C89B69C2B068FC378DAA952BA7F163C4A11628F55A4DF523B3EF SWAP2 LOG4 POP POP POP JUMP JUMPDEST PUSH2 0x974 DUP3 DUP3 PUSH2 0xA1D JUMP JUMPDEST PUSH1 0x1 PUSH1 0x1 PUSH1 0xA0 SHL SUB SWAP2 SWAP1 SWAP2 AND PUSH1 0x0 SWAP1 DUP2 MSTORE PUSH1 0x8 PUSH1 0x20 SWAP1 DUP2 MSTORE PUSH1 0x40 DUP1 DUP4 KECCAK256 DUP1 SLOAD DUP6 DUP6 MSTORE PUSH1 0x9 DUP5 MSTORE DUP3 DUP6 KECCAK256 DUP2 SWAP1 SSTORE PUSH1 0x1 DUP1 DUP3 ADD DUP4 SSTORE SWAP2 DUP6 MSTORE DUP4 DUP6 KECCAK256 ADD DUP6 SWAP1 SSTORE PUSH1 0x6 DUP1 SLOAD DUP7 DUP7 MSTORE PUSH1 0x7 SWAP1 SWAP5 MSTORE SWAP2 DUP5 KECCAK256 DUP4 SWAP1 SSTORE DUP3 ADD DUP2 SSTORE SWAP1 SWAP2 MSTORE PUSH32 0xF652222313E28459528D920B65115C16C04F3EFC82AAEDC97BE59F3F377C0D3F ADD SSTORE JUMP JUMPDEST DUP1 SLOAD PUSH2 0x9FC SWAP1 PUSH1 0x1 PUSH2 0xB4B JUMP JUMPDEST SWAP1 SSTORE JUMP JUMPDEST PUSH1 0x1 DUP2 PUSH1 0x0 ADD PUSH1 0x0 DUP3 DUP3 SLOAD PUSH2 0xA15 SWAP2 SWAP1 PUSH2 0xEF5 JUMP JUMPDEST SWAP1 SWAP2 SSTORE POP POP POP JUMP JUMPDEST PUSH1 0x1 PUSH1 0x1 PUSH1 0xA0 SHL SUB DUP3 AND PUSH2 0xA73 JUMPI PUSH1 0x40 MLOAD PUSH3 0x461BCD PUSH1 0xE5 SHL DUP2 MSTORE PUSH1 0x20 PUSH1 0x4 DUP3 ADD MSTORE PUSH1 0x1E PUSH1 0x24 DUP3 ADD MSTORE PUSH32 0x455243373231206D696E74696E6720746F207A65726F20616464726573730000 PUSH1 0x44 DUP3 ADD MSTORE PUSH1 0x64 ADD PUSH2 0x2E3 JUMP JUMPDEST PUSH1 0x0 DUP2 DUP2 MSTORE PUSH1 0x3 PUSH1 0x20 MSTORE PUSH1 0x40 SWAP1 KECCAK256 SLOAD PUSH1 0x1 PUSH1 0x1 PUSH1 0xA0 SHL SUB AND ISZERO PUSH2 0xAD0 JUMPI PUSH1 0x40 MLOAD PUSH3 0x461BCD PUSH1 0xE5 SHL DUP2 MSTORE PUSH1 0x20 PUSH1 0x4 DUP3 ADD MSTORE PUSH1 0x15 PUSH1 0x24 DUP3 ADD MSTORE PUSH21 0x45524337323120616C726561647920657869737473 PUSH1 0x58 SHL PUSH1 0x44 DUP3 ADD MSTORE PUSH1 0x64 ADD PUSH2 0x2E3 JUMP JUMPDEST PUSH1 0x0 DUP2 DUP2 MSTORE PUSH1 0x3 PUSH1 0x20 SWAP1 DUP2 MSTORE PUSH1 0x40 DUP1 DUP4 KECCAK256 DUP1 SLOAD PUSH1 0x1 PUSH1 0x1 PUSH1 0xA0 SHL SUB NOT AND PUSH1 0x1 PUSH1 0x1 PUSH1 0xA0 SHL SUB DUP8 AND SWAP1 DUP2 OR SWAP1 SWAP2 SSTORE DUP4 MSTORE PUSH1 0x4 SWAP1 SWAP2 MSTORE SWAP1 KECCAK256 PUSH2 0xB0F SWAP1 PUSH2 0xA00 JUMP JUMPDEST PUSH1 0x40 MLOAD DUP2 SWAP1 PUSH1 0x1 PUSH1 0x1 PUSH1 0xA0 SHL SUB DUP5 AND SWAP1 PUSH1 0x0 SWAP1 PUSH32 0xDDF252AD1BE2C89B69C2B068FC378DAA952BA7F163C4A11628F55A4DF523B3EF SWAP1 DUP3 SWAP1 LOG4 POP POP JUMP JUMPDEST PUSH1 0x0 DUP3 DUP3 GT ISZERO PUSH2 0xB9D JUMPI PUSH1 0x40 MLOAD PUSH3 0x461BCD PUSH1 0xE5 SHL DUP2 MSTORE PUSH1 0x20 PUSH1 0x4 DUP3 ADD MSTORE PUSH1 0x1E PUSH1 0x24 DUP3 ADD MSTORE PUSH32 0x536166656D6174683A207375627472616374696F6E206F766572666C6F770000 PUSH1 0x44 DUP3 ADD MSTORE PUSH1 0x64 ADD PUSH2 0x2E3 JUMP JUMPDEST PUSH1 0x0 PUSH2 0xBA9 DUP4 DUP6 PUSH2 0xEDE JUMP JUMPDEST SWAP5 SWAP4 POP POP POP POP JUMP JUMPDEST DUP3 DUP1 SLOAD PUSH2 0xBBD SWAP1 PUSH2 0xE5B JUMP JUMPDEST SWAP1 PUSH1 0x0 MSTORE PUSH1 0x20 PUSH1 0x0 KECCAK256 SWAP1 PUSH1 0x1F ADD PUSH1 0x20 SWAP1 DIV DUP2 ADD SWAP3 DUP3 PUSH2 0xBDF JUMPI PUSH1 0x0 DUP6 SSTORE PUSH2 0xC25 JUMP JUMPDEST DUP3 PUSH1 0x1F LT PUSH2 0xBF8 JUMPI DUP1 MLOAD PUSH1 0xFF NOT AND DUP4 DUP1 ADD OR DUP6 SSTORE PUSH2 0xC25 JUMP JUMPDEST DUP3 DUP1 ADD PUSH1 0x1 ADD DUP6 SSTORE DUP3 ISZERO PUSH2 0xC25 JUMPI SWAP2 DUP3 ADD JUMPDEST DUP3 DUP2 GT ISZERO PUSH2 0xC25 JUMPI DUP3 MLOAD DUP3 SSTORE SWAP2 PUSH1 0x20 ADD SWAP2 SWAP1 PUSH1 0x1 ADD SWAP1 PUSH2 0xC0A JUMP JUMPDEST POP PUSH2 0xC31 SWAP3 SWAP2 POP PUSH2 0xC35 JUMP JUMPDEST POP SWAP1 JUMP JUMPDEST JUMPDEST DUP1 DUP3 GT ISZERO PUSH2 0xC31 JUMPI PUSH1 0x0 DUP2 SSTORE PUSH1 0x1 ADD PUSH2 0xC36 JUMP JUMPDEST PUSH1 0x0 PUSH1 0x20 DUP3 DUP5 SUB SLT ISZERO PUSH2 0xC5C JUMPI PUSH1 0x0 DUP1 REVERT JUMPDEST DUP2 CALLDATALOAD PUSH1 0x1 PUSH1 0x1 PUSH1 0xE0 SHL SUB NOT DUP2 AND DUP2 EQ PUSH2 0xC74 JUMPI PUSH1 0x0 DUP1 REVERT JUMPDEST SWAP4 SWAP3 POP POP POP JUMP JUMPDEST PUSH1 0x0 JUMPDEST DUP4 DUP2 LT ISZERO PUSH2 0xC96 JUMPI DUP2 DUP2 ADD MLOAD DUP4 DUP3 ADD MSTORE PUSH1 0x20 ADD PUSH2 0xC7E JUMP JUMPDEST DUP4 DUP2 GT ISZERO PUSH2 0xCA5 JUMPI PUSH1 0x0 DUP5 DUP5 ADD MSTORE JUMPDEST POP POP POP POP JUMP JUMPDEST PUSH1 0x20 DUP2 MSTORE PUSH1 0x0 DUP3 MLOAD DUP1 PUSH1 0x20 DUP5 ADD MSTORE PUSH2 0xCCA DUP2 PUSH1 0x40 DUP6 ADD PUSH1 0x20 DUP8 ADD PUSH2 0xC7B JUMP JUMPDEST PUSH1 0x1F ADD PUSH1 0x1F NOT AND SWAP2 SWAP1 SWAP2 ADD PUSH1 0x40 ADD SWAP3 SWAP2 POP POP JUMP JUMPDEST DUP1 CALLDATALOAD PUSH1 0x1 PUSH1 0x1 PUSH1 0xA0 SHL SUB DUP2 AND DUP2 EQ PUSH2 0xCF5 JUMPI PUSH1 0x0 DUP1 REVERT JUMPDEST SWAP2 SWAP1 POP JUMP JUMPDEST PUSH1 0x0 DUP1 PUSH1 0x40 DUP4 DUP6 SUB SLT ISZERO PUSH2 0xD0D JUMPI PUSH1 0x0 DUP1 REVERT JUMPDEST PUSH2 0xD16 DUP4 PUSH2 0xCDE JUMP JUMPDEST SWAP5 PUSH1 0x20 SWAP4 SWAP1 SWAP4 ADD CALLDATALOAD SWAP4 POP POP POP JUMP JUMPDEST PUSH1 0x0 DUP1 PUSH1 0x0 PUSH1 0x60 DUP5 DUP7 SUB SLT ISZERO PUSH2 0xD39 JUMPI PUSH1 0x0 DUP1 REVERT JUMPDEST PUSH2 0xD42 DUP5 PUSH2 0xCDE JUMP JUMPDEST SWAP3 POP PUSH2 0xD50 PUSH1 0x20 DUP6 ADD PUSH2 0xCDE JUMP JUMPDEST SWAP2 POP PUSH1 0x40 DUP5 ADD CALLDATALOAD SWAP1 POP SWAP3 POP SWAP3 POP SWAP3 JUMP JUMPDEST PUSH1 0x0 PUSH1 0x20 DUP3 DUP5 SUB SLT ISZERO PUSH2 0xD72 JUMPI PUSH1 0x0 DUP1 REVERT JUMPDEST POP CALLDATALOAD SWAP2 SWAP1 POP JUMP JUMPDEST PUSH1 0x0 PUSH1 0x20 DUP3 DUP5 SUB SLT ISZERO PUSH2 0xD8B JUMPI PUSH1 0x0 DUP1 REVERT JUMPDEST PUSH2 0xC74 DUP3 PUSH2 0xCDE JUMP JUMPDEST PUSH4 0x4E487B71 PUSH1 0xE0 SHL PUSH1 0x0 MSTORE PUSH1 0x41 PUSH1 0x4 MSTORE PUSH1 0x24 PUSH1 0x0 REVERT JUMPDEST PUSH1 0x0 PUSH1 0x20 DUP3 DUP5 SUB SLT ISZERO PUSH2 0xDBC JUMPI PUSH1 0x0 DUP1 REVERT JUMPDEST DUP2 CALLDATALOAD PUSH8 0xFFFFFFFFFFFFFFFF DUP1 DUP3 GT ISZERO PUSH2 0xDD4 JUMPI PUSH1 0x0 DUP1 REVERT JUMPDEST DUP2 DUP5 ADD SWAP2 POP DUP5 PUSH1 0x1F DUP4 ADD SLT PUSH2 0xDE8 JUMPI PUSH1 0x0 DUP1 REVERT JUMPDEST DUP2 CALLDATALOAD DUP2 DUP2 GT ISZERO PUSH2 0xDFA JUMPI PUSH2 0xDFA PUSH2 0xD94 JUMP JUMPDEST PUSH1 0x40 MLOAD PUSH1 0x1F DUP3 ADD PUSH1 0x1F NOT SWAP1 DUP2 AND PUSH1 0x3F ADD AND DUP2 ADD SWAP1 DUP4 DUP3 GT DUP2 DUP4 LT OR ISZERO PUSH2 0xE22 JUMPI PUSH2 0xE22 PUSH2 0xD94 JUMP JUMPDEST DUP2 PUSH1 0x40 MSTORE DUP3 DUP2 MSTORE DUP8 PUSH1 0x20 DUP5 DUP8 ADD ADD GT ISZERO PUSH2 0xE3B JUMPI PUSH1 0x0 DUP1 REVERT JUMPDEST DUP3 PUSH1 0x20 DUP7 ADD PUSH1 0x20 DUP4 ADD CALLDATACOPY PUSH1 0x0 SWAP3 DUP2 ADD PUSH1 0x20 ADD SWAP3 SWAP1 SWAP3 MSTORE POP SWAP6 SWAP5 POP POP POP POP POP JUMP JUMPDEST PUSH1 0x1 DUP2 DUP2 SHR SWAP1 DUP3 AND DUP1 PUSH2 0xE6F JUMPI PUSH1 0x7F DUP3 AND SWAP2 POP JUMPDEST PUSH1 0x20 DUP3 LT DUP2 EQ ISZERO PUSH2 0xE90 JUMPI PUSH4 0x4E487B71 PUSH1 0xE0 SHL PUSH1 0x0 MSTORE PUSH1 0x22 PUSH1 0x4 MSTORE PUSH1 0x24 PUSH1 0x0 REVERT JUMPDEST POP SWAP2 SWAP1 POP JUMP JUMPDEST PUSH4 0x4E487B71 PUSH1 0xE0 SHL PUSH1 0x0 MSTORE PUSH1 0x32 PUSH1 0x4 MSTORE PUSH1 0x24 PUSH1 0x0 REVERT JUMPDEST PUSH1 0x0 DUP3 MLOAD PUSH2 0xEBE DUP2 DUP5 PUSH1 0x20 DUP8 ADD PUSH2 0xC7B JUMP JUMPDEST SWAP2 SWAP1 SWAP2 ADD SWAP3 SWAP2 POP POP JUMP JUMPDEST PUSH4 0x4E487B71 PUSH1 0xE0 SHL PUSH1 0x0 MSTORE PUSH1 0x11 PUSH1 0x4 MSTORE PUSH1 0x24 PUSH1 0x0 REVERT JUMPDEST PUSH1 0x0 DUP3 DUP3 LT ISZERO PUSH2 0xEF0 JUMPI PUSH2 0xEF0 PUSH2 0xEC8 JUMP JUMPDEST POP SUB SWAP1 JUMP JUMPDEST PUSH1 0x0 DUP3 NOT DUP3 GT ISZERO PUSH2 0xF08 JUMPI PUSH2 0xF08 PUSH2 0xEC8 JUMP JUMPDEST POP ADD SWAP1 JUMP INVALID LOG2 PUSH5 0x6970667358 0x22 SLT KECCAK256 0x5E CALLDATACOPY 0xB3 EXTCODESIZE 0xD0 SWAP3 0xBC SWAP14 0x29 DUP13 0x4B 0xE2 DUP10 RETURNDATACOPY 0xD1 NUMBER SELFDESTRUCT CALL 0xFB 0xBA 0xB5 SWAP10 TIMESTAMP SUB PUSH17 0x94A2A8A2079C3F64736F6C634300080A00 CALLER ","sha1":"07cc5e390c5da564cc609e15f614230512bf9269","source":"// SPDX-License-Identifier: MIT\n\npragma solidity ^0.8.10;\n\nimport './ERC721Connector.sol';\n\ncontract InnoByte is ERC721Connector {\n\n    // matriz para guardar nuestros nfts\n    string[] public InnoByteNFTS;\n\n    mapping(string => bool) _innobyteNFTExists;\n\n    function mint(string memory _innobyte) public {\n\n        require(!_innobyteNFTExists[_innobyte], 'Error - token already exists');\n\n        InnoByteNFTS.push(_innobyte);\n        uint _id = InnoByteNFTS.length -1;\n\n        _mint(msg.sender, _id);\n\n        _innobyteNFTExists[_innobyte] = true;\n    }\n\n    constructor() ERC721Connector('InnoByte','MOTT') {}\n\n}\n","sourcePath":"contracts/InnoByte.sol","type":"contract","deployment":{"address":"0x61024733f128257ED128635bb0D8347b63E17BF1","chainid":"5777","blockHeight":149}}