{
  "abi": [
    {
      "inputs": [],
      "stateMutability": "nonpayable",
      "type": "constructor"
    },
    {
      "inputs": [
        {
          "internalType": "bytes4",
          "name": "interfaceID",
          "type": "bytes4"
        }
      ],
      "name": "supportsInterface",
      "outputs": [
        {
          "internalType": "bool",
          "name": "",
          "type": "bool"
        }
      ],
      "stateMutability": "view",
      "type": "function"
    }
  ],
  "bytecode": "608060405234801561001057600080fd5b5061003a7f01ffc9a7a5cef8baa21ed3c5c0d7e23accb804b619e9333b597f47a0d84076e261003f565b6100c2565b6001600160e01b0319808216141561009d5760405162461bcd60e51b815260206004820152601960248201527f496e76616c696420696e74657266616365207265717565737400000000000000604482015260640160405180910390fd5b6001600160e01b0319166000908152602081905260409020805460ff19166001179055565b60d0806100d06000396000f3fe6080604052348015600f57600080fd5b506004361060285760003560e01c806301ffc9a714602d575b600080fd5b60576038366004606b565b6001600160e01b03191660009081526020819052604090205460ff1690565b604051901515815260200160405180910390f35b600060208284031215607c57600080fd5b81356001600160e01b031981168114609357600080fd5b939250505056fea26469706673582212206c7884aea9bab500ed355e0bd9993606ab760025cabdc203957bc95bf952187d64736f6c634300080a0033",
  "bytecodeSha1": "ea68e68d9869d067be51254453f7caa0a4cccb5d",
  "compiler": {
    "evm_version": "istanbul",
    "optimizer": {
      "enabled": true,
      "runs": 200
    },
    "version": "0.8.10+commit.fc410830"
  },
  "contractName": "ERC165",
  "language": "Solidity",
  "natspec": {
    "kind": "dev",
    "methods": {},
    "version": 1
  },
  "opcodes": "PUSH1 0x80 PUSH1 0x40 MSTORE CALLVALUE DUP1 ISZERO PUSH1 0xF JUMPI PUSH1 0x0 DUP1 REVERT JUMPDEST POP PUSH1 0x4 CALLDATASIZE LT PUSH1 0x28 JUMPI PUSH1 0x0 CALLDATALOAD PUSH1 0xE0 SHR DUP1 PUSH4 0x1FFC9A7 EQ PUSH1 0x2D JUMPI JUMPDEST PUSH1 0x0 DUP1 REVERT JUMPDEST PUSH1 0x57 PUSH1 0x38 CALLDATASIZE PUSH1 0x4 PUSH1 0x6B JUMP JUMPDEST PUSH1 0x1 PUSH1 0x1 PUSH1 0xE0 SHL SUB NOT AND PUSH1 0x0 SWAP1 DUP2 MSTORE PUSH1 0x20 DUP2 SWAP1 MSTORE PUSH1 0x40 SWAP1 KECCAK256 SLOAD PUSH1 0xFF AND SWAP1 JUMP JUMPDEST PUSH1 0x40 MLOAD SWAP1 ISZERO ISZERO DUP2 MSTORE PUSH1 0x20 ADD PUSH1 0x40 MLOAD DUP1 SWAP2 SUB SWAP1 RETURN JUMPDEST PUSH1 0x0 PUSH1 0x20 DUP3 DUP5 SUB SLT ISZERO PUSH1 0x7C JUMPI PUSH1 0x0 DUP1 REVERT JUMPDEST DUP2 CALLDATALOAD PUSH1 0x1 PUSH1 0x1 PUSH1 0xE0 SHL SUB NOT DUP2 AND DUP2 EQ PUSH1 0x93 JUMPI PUSH1 0x0 DUP1 REVERT JUMPDEST SWAP4 SWAP3 POP POP POP JUMP INVALID LOG2 PUSH5 0x6970667358 0x22 SLT KECCAK256 PUSH13 0x7884AEA9BAB500ED355E0BD999 CALLDATASIZE MOD 0xAB PUSH23 0x25CABDC203957BC95BF952187D64736F6C634300080A STOP CALLER ",
  "sha1": "bbb591ce4d8fa30763affe651fb61453a6b9dc15",
  "source": "// SPDX-License-Identifier: MIT\npragma solidity ^0.8.10;\n\nimport \"../interfaces/IERC165.sol\";\n\ncontract ERC165 is IERC165 {\n    mapping(bytes4 => bool) private _supportedInterfaces;\n\n    constructor() {\n        _registerInterface(bytes4(keccak256(\"supportsInterface(bytes4)\")));\n    }\n\n    function supportsInterface(\n        bytes4 interfaceID\n    ) external view override returns (bool) {\n        return _supportedInterfaces[interfaceID];\n    }\n\n    function _registerInterface(bytes4 interfaceId) internal {\n        require(interfaceId != 0xffffffff, \"Invalid interface request\");\n        _supportedInterfaces[interfaceId] = true;\n    }\n}\n",
  "sourcePath": "contracts/ERC165.sol",
  "type": "contract"
}