{
  "abi": [
    {
      "inputs": [],
      "stateMutability": "nonpayable",
      "type": "constructor"
    },
    {
      "anonymous": false,
      "inputs": [
        {
          "indexed": true,
          "internalType": "address",
          "name": "_owner",
          "type": "address"
        },
        {
          "indexed": true,
          "internalType": "address",
          "name": "_approved",
          "type": "address"
        },
        {
          "indexed": true,
          "internalType": "uint256",
          "name": "_tokenId",
          "type": "uint256"
        }
      ],
      "name": "Approval",
      "type": "event"
    },
    {
      "anonymous": false,
      "inputs": [
        {
          "indexed": true,
          "internalType": "address",
          "name": "from",
          "type": "address"
        },
        {
          "indexed": true,
          "internalType": "address",
          "name": "to",
          "type": "address"
        },
        {
          "indexed": true,
          "internalType": "uint256",
          "name": "tokenId",
          "type": "uint256"
        }
      ],
      "name": "Transfer",
      "type": "event"
    },
    {
      "inputs": [
        {
          "internalType": "address",
          "name": "_to",
          "type": "address"
        },
        {
          "internalType": "uint256",
          "name": "tokenId",
          "type": "uint256"
        }
      ],
      "name": "approve",
      "outputs": [],
      "stateMutability": "nonpayable",
      "type": "function"
    },
    {
      "inputs": [
        {
          "internalType": "address",
          "name": "_owner",
          "type": "address"
        }
      ],
      "name": "balanceOf",
      "outputs": [
        {
          "internalType": "uint256",
          "name": "",
          "type": "uint256"
        }
      ],
      "stateMutability": "view",
      "type": "function"
    },
    {
      "inputs": [
        {
          "internalType": "uint256",
          "name": "_tokenId",
          "type": "uint256"
        }
      ],
      "name": "ownerOf",
      "outputs": [
        {
          "internalType": "address",
          "name": "",
          "type": "address"
        }
      ],
      "stateMutability": "view",
      "type": "function"
    },
    {
      "inputs": [
        {
          "internalType": "bytes4",
          "name": "interfaceID",
          "type": "bytes4"
        }
      ],
      "name": "supportsInterface",
      "outputs": [
        {
          "internalType": "bool",
          "name": "",
          "type": "bool"
        }
      ],
      "stateMutability": "view",
      "type": "function"
    },
    {
      "inputs": [
        {
          "internalType": "address",
          "name": "_from",
          "type": "address"
        },
        {
          "internalType": "address",
          "name": "_to",
          "type": "address"
        },
        {
          "internalType": "uint256",
          "name": "_tokenId",
          "type": "uint256"
        }
      ],
      "name": "transferFrom",
      "outputs": [],
      "stateMutability": "nonpayable",
      "type": "function"
    }
  ],
  "bytecode": "608060405234801561001057600080fd5b5061003a7f01ffc9a7a5cef8baa21ed3c5c0d7e23accb804b619e9333b597f47a0d84076e2610068565b6100637f92d8a794d910422f7549620ed7a8f75c2c42d18032da05c61ed89586344e965e610068565b6100eb565b6001600160e01b031980821614156100c65760405162461bcd60e51b815260206004820152601960248201527f496e76616c696420696e74657266616365207265717565737400000000000000604482015260640160405180910390fd5b6001600160e01b0319166000908152602081905260409020805460ff19166001179055565b61072d806100fa6000396000f3fe608060405234801561001057600080fd5b50600436106100575760003560e01c806301ffc9a71461005c578063095ea7b31461009e57806323b872dd146100b35780636352211e146100c657806370a08231146100f1575b600080fd5b61008961006a3660046105cb565b6001600160e01b03191660009081526020819052604090205460ff1690565b60405190151581526020015b60405180910390f35b6100b16100ac366004610618565b610112565b005b6100b16100c1366004610642565b610244565b6100d96100d436600461067e565b610267565b6040516001600160a01b039091168152602001610095565b6101046100ff366004610697565b6102c4565b604051908152602001610095565b600061011d82610267565b9050806001600160a01b0316836001600160a01b031614156101905760405162461bcd60e51b815260206004820152602160248201527f4572726f72202d20617070726f76616c20746f2063757272656e74206f776e656044820152603960f91b60648201526084015b60405180910390fd5b336001600160a01b038216146101e85760405162461bcd60e51b815260206004820152601c60248201527f43757272656e742063616c6c6572206d757374206265206f776e6572000000006044820152606401610187565b60008281526003602052604080822080546001600160a01b0319166001600160a01b0387811691821790925591518593918516917f8c5be1e5ebec7d5bd14f71427d1e84f3dd0314c0f7b2291e5b200ac8c7c3b92591a4505050565b61024e338261032c565b61025757600080fd5b6102628383836103a9565b505050565b6000818152600160205260408120546001600160a01b0316806102be5760405162461bcd60e51b815260206004820152600f60248201526e41646472657373206973207a65726f60881b6044820152606401610187565b92915050565b60006001600160a01b03821661030e5760405162461bcd60e51b815260206004820152600f60248201526e41646472657373206973207a65726f60881b6044820152606401610187565b6001600160a01b0382166000908152600260205260409020546102be565b6000818152600160205260408120546001600160a01b03166103875760405162461bcd60e51b81526020600482015260146024820152731d1bdad95b88191bd95cc81b9bdd08195e1a5cdd60621b6044820152606401610187565b600061039283610267565b6001600160a01b0385811691161491505092915050565b6001600160a01b0382166104135760405162461bcd60e51b815260206004820152602b60248201527f4572726f72202d20455243373231205472616e7366657220746f20746865207a60448201526a65726f206164647265737360a81b6064820152608401610187565b826001600160a01b031661042682610267565b6001600160a01b0316146104995760405162461bcd60e51b815260206004820152603460248201527f547279696e6720746f207472616e73666572206120746f6b656e20746865206160448201527364647265737320646f6573206e6f74206f776e2160601b6064820152608401610187565b6001600160a01b03831660009081526002602052604090206104ba90610537565b6001600160a01b03821660009081526002602052604090206104db90610548565b60008181526001602052604080822080546001600160a01b0319166001600160a01b0386811691821790925591518493918716917fddf252ad1be2c89b69c2b068fc378daa952ba7f163c4a11628f55a4df523b3ef91a4505050565b8054610544906001610565565b9055565b600181600001600082825461055d91906106c8565b909155505050565b6000828211156105b75760405162461bcd60e51b815260206004820152601e60248201527f536166656d6174683a207375627472616374696f6e206f766572666c6f7700006044820152606401610187565b60006105c383856106e0565b949350505050565b6000602082840312156105dd57600080fd5b81356001600160e01b0319811681146105f557600080fd5b9392505050565b80356001600160a01b038116811461061357600080fd5b919050565b6000806040838503121561062b57600080fd5b610634836105fc565b946020939093013593505050565b60008060006060848603121561065757600080fd5b610660846105fc565b925061066e602085016105fc565b9150604084013590509250925092565b60006020828403121561069057600080fd5b5035919050565b6000602082840312156106a957600080fd5b6105f5826105fc565b634e487b7160e01b600052601160045260246000fd5b600082198211156106db576106db6106b2565b500190565b6000828210156106f2576106f26106b2565b50039056fea26469706673582212202dc09321d59732fbe49560de184e56bb534bd8b44c8af2010195d47f549ce65264736f6c634300080a0033",
  "bytecodeSha1": "07366613addde2335a50d150195035848db9ac8b",
  "compiler": {
    "evm_version": "istanbul",
    "optimizer": {
      "enabled": true,
      "runs": 200
    },
    "version": "0.8.10+commit.fc410830"
  },
  "contractName": "ERC721",
  "language": "Solidity",
  "natspec": {
    "kind": "dev",
    "methods": {},
    "version": 1
  },
  "opcodes": "PUSH1 0x80 PUSH1 0x40 MSTORE CALLVALUE DUP1 ISZERO PUSH2 0x10 JUMPI PUSH1 0x0 DUP1 REVERT JUMPDEST POP PUSH1 0x4 CALLDATASIZE LT PUSH2 0x57 JUMPI PUSH1 0x0 CALLDATALOAD PUSH1 0xE0 SHR DUP1 PUSH4 0x1FFC9A7 EQ PUSH2 0x5C JUMPI DUP1 PUSH4 0x95EA7B3 EQ PUSH2 0x9E JUMPI DUP1 PUSH4 0x23B872DD EQ PUSH2 0xB3 JUMPI DUP1 PUSH4 0x6352211E EQ PUSH2 0xC6 JUMPI DUP1 PUSH4 0x70A08231 EQ PUSH2 0xF1 JUMPI JUMPDEST PUSH1 0x0 DUP1 REVERT JUMPDEST PUSH2 0x89 PUSH2 0x6A CALLDATASIZE PUSH1 0x4 PUSH2 0x5CB JUMP JUMPDEST PUSH1 0x1 PUSH1 0x1 PUSH1 0xE0 SHL SUB NOT AND PUSH1 0x0 SWAP1 DUP2 MSTORE PUSH1 0x20 DUP2 SWAP1 MSTORE PUSH1 0x40 SWAP1 KECCAK256 SLOAD PUSH1 0xFF AND SWAP1 JUMP JUMPDEST PUSH1 0x40 MLOAD SWAP1 ISZERO ISZERO DUP2 MSTORE PUSH1 0x20 ADD JUMPDEST PUSH1 0x40 MLOAD DUP1 SWAP2 SUB SWAP1 RETURN JUMPDEST PUSH2 0xB1 PUSH2 0xAC CALLDATASIZE PUSH1 0x4 PUSH2 0x618 JUMP JUMPDEST PUSH2 0x112 JUMP JUMPDEST STOP JUMPDEST PUSH2 0xB1 PUSH2 0xC1 CALLDATASIZE PUSH1 0x4 PUSH2 0x642 JUMP JUMPDEST PUSH2 0x244 JUMP JUMPDEST PUSH2 0xD9 PUSH2 0xD4 CALLDATASIZE PUSH1 0x4 PUSH2 0x67E JUMP JUMPDEST PUSH2 0x267 JUMP JUMPDEST PUSH1 0x40 MLOAD PUSH1 0x1 PUSH1 0x1 PUSH1 0xA0 SHL SUB SWAP1 SWAP2 AND DUP2 MSTORE PUSH1 0x20 ADD PUSH2 0x95 JUMP JUMPDEST PUSH2 0x104 PUSH2 0xFF CALLDATASIZE PUSH1 0x4 PUSH2 0x697 JUMP JUMPDEST PUSH2 0x2C4 JUMP JUMPDEST PUSH1 0x40 MLOAD SWAP1 DUP2 MSTORE PUSH1 0x20 ADD PUSH2 0x95 JUMP JUMPDEST PUSH1 0x0 PUSH2 0x11D DUP3 PUSH2 0x267 JUMP JUMPDEST SWAP1 POP DUP1 PUSH1 0x1 PUSH1 0x1 PUSH1 0xA0 SHL SUB AND DUP4 PUSH1 0x1 PUSH1 0x1 PUSH1 0xA0 SHL SUB AND EQ ISZERO PUSH2 0x190 JUMPI PUSH1 0x40 MLOAD PUSH3 0x461BCD PUSH1 0xE5 SHL DUP2 MSTORE PUSH1 0x20 PUSH1 0x4 DUP3 ADD MSTORE PUSH1 0x21 PUSH1 0x24 DUP3 ADD MSTORE PUSH32 0x4572726F72202D20617070726F76616C20746F2063757272656E74206F776E65 PUSH1 0x44 DUP3 ADD MSTORE PUSH1 0x39 PUSH1 0xF9 SHL PUSH1 0x64 DUP3 ADD MSTORE PUSH1 0x84 ADD JUMPDEST PUSH1 0x40 MLOAD DUP1 SWAP2 SUB SWAP1 REVERT JUMPDEST CALLER PUSH1 0x1 PUSH1 0x1 PUSH1 0xA0 SHL SUB DUP3 AND EQ PUSH2 0x1E8 JUMPI PUSH1 0x40 MLOAD PUSH3 0x461BCD PUSH1 0xE5 SHL DUP2 MSTORE PUSH1 0x20 PUSH1 0x4 DUP3 ADD MSTORE PUSH1 0x1C PUSH1 0x24 DUP3 ADD MSTORE PUSH32 0x43757272656E742063616C6C6572206D757374206265206F776E657200000000 PUSH1 0x44 DUP3 ADD MSTORE PUSH1 0x64 ADD PUSH2 0x187 JUMP JUMPDEST PUSH1 0x0 DUP3 DUP2 MSTORE PUSH1 0x3 PUSH1 0x20 MSTORE PUSH1 0x40 DUP1 DUP3 KECCAK256 DUP1 SLOAD PUSH1 0x1 PUSH1 0x1 PUSH1 0xA0 SHL SUB NOT AND PUSH1 0x1 PUSH1 0x1 PUSH1 0xA0 SHL SUB DUP8 DUP2 AND SWAP2 DUP3 OR SWAP1 SWAP3 SSTORE SWAP2 MLOAD DUP6 SWAP4 SWAP2 DUP6 AND SWAP2 PUSH32 0x8C5BE1E5EBEC7D5BD14F71427D1E84F3DD0314C0F7B2291E5B200AC8C7C3B925 SWAP2 LOG4 POP POP POP JUMP JUMPDEST PUSH2 0x24E CALLER DUP3 PUSH2 0x32C JUMP JUMPDEST PUSH2 0x257 JUMPI PUSH1 0x0 DUP1 REVERT JUMPDEST PUSH2 0x262 DUP4 DUP4 DUP4 PUSH2 0x3A9 JUMP JUMPDEST POP POP POP JUMP JUMPDEST PUSH1 0x0 DUP2 DUP2 MSTORE PUSH1 0x1 PUSH1 0x20 MSTORE PUSH1 0x40 DUP2 KECCAK256 SLOAD PUSH1 0x1 PUSH1 0x1 PUSH1 0xA0 SHL SUB AND DUP1 PUSH2 0x2BE JUMPI PUSH1 0x40 MLOAD PUSH3 0x461BCD PUSH1 0xE5 SHL DUP2 MSTORE PUSH1 0x20 PUSH1 0x4 DUP3 ADD MSTORE PUSH1 0xF PUSH1 0x24 DUP3 ADD MSTORE PUSH15 0x41646472657373206973207A65726F PUSH1 0x88 SHL PUSH1 0x44 DUP3 ADD MSTORE PUSH1 0x64 ADD PUSH2 0x187 JUMP JUMPDEST SWAP3 SWAP2 POP POP JUMP JUMPDEST PUSH1 0x0 PUSH1 0x1 PUSH1 0x1 PUSH1 0xA0 SHL SUB DUP3 AND PUSH2 0x30E JUMPI PUSH1 0x40 MLOAD PUSH3 0x461BCD PUSH1 0xE5 SHL DUP2 MSTORE PUSH1 0x20 PUSH1 0x4 DUP3 ADD MSTORE PUSH1 0xF PUSH1 0x24 DUP3 ADD MSTORE PUSH15 0x41646472657373206973207A65726F PUSH1 0x88 SHL PUSH1 0x44 DUP3 ADD MSTORE PUSH1 0x64 ADD PUSH2 0x187 JUMP JUMPDEST PUSH1 0x1 PUSH1 0x1 PUSH1 0xA0 SHL SUB DUP3 AND PUSH1 0x0 SWAP1 DUP2 MSTORE PUSH1 0x2 PUSH1 0x20 MSTORE PUSH1 0x40 SWAP1 KECCAK256 SLOAD PUSH2 0x2BE JUMP JUMPDEST PUSH1 0x0 DUP2 DUP2 MSTORE PUSH1 0x1 PUSH1 0x20 MSTORE PUSH1 0x40 DUP2 KECCAK256 SLOAD PUSH1 0x1 PUSH1 0x1 PUSH1 0xA0 SHL SUB AND PUSH2 0x387 JUMPI PUSH1 0x40 MLOAD PUSH3 0x461BCD PUSH1 0xE5 SHL DUP2 MSTORE PUSH1 0x20 PUSH1 0x4 DUP3 ADD MSTORE PUSH1 0x14 PUSH1 0x24 DUP3 ADD MSTORE PUSH20 0x1D1BDAD95B88191BD95CC81B9BDD08195E1A5CDD PUSH1 0x62 SHL PUSH1 0x44 DUP3 ADD MSTORE PUSH1 0x64 ADD PUSH2 0x187 JUMP JUMPDEST PUSH1 0x0 PUSH2 0x392 DUP4 PUSH2 0x267 JUMP JUMPDEST PUSH1 0x1 PUSH1 0x1 PUSH1 0xA0 SHL SUB DUP6 DUP2 AND SWAP2 AND EQ SWAP2 POP POP SWAP3 SWAP2 POP POP JUMP JUMPDEST PUSH1 0x1 PUSH1 0x1 PUSH1 0xA0 SHL SUB DUP3 AND PUSH2 0x413 JUMPI PUSH1 0x40 MLOAD PUSH3 0x461BCD PUSH1 0xE5 SHL DUP2 MSTORE PUSH1 0x20 PUSH1 0x4 DUP3 ADD MSTORE PUSH1 0x2B PUSH1 0x24 DUP3 ADD MSTORE PUSH32 0x4572726F72202D20455243373231205472616E7366657220746F20746865207A PUSH1 0x44 DUP3 ADD MSTORE PUSH11 0x65726F2061646472657373 PUSH1 0xA8 SHL PUSH1 0x64 DUP3 ADD MSTORE PUSH1 0x84 ADD PUSH2 0x187 JUMP JUMPDEST DUP3 PUSH1 0x1 PUSH1 0x1 PUSH1 0xA0 SHL SUB AND PUSH2 0x426 DUP3 PUSH2 0x267 JUMP JUMPDEST PUSH1 0x1 PUSH1 0x1 PUSH1 0xA0 SHL SUB AND EQ PUSH2 0x499 JUMPI PUSH1 0x40 MLOAD PUSH3 0x461BCD PUSH1 0xE5 SHL DUP2 MSTORE PUSH1 0x20 PUSH1 0x4 DUP3 ADD MSTORE PUSH1 0x34 PUSH1 0x24 DUP3 ADD MSTORE PUSH32 0x547279696E6720746F207472616E73666572206120746F6B656E207468652061 PUSH1 0x44 DUP3 ADD MSTORE PUSH20 0x64647265737320646F6573206E6F74206F776E21 PUSH1 0x60 SHL PUSH1 0x64 DUP3 ADD MSTORE PUSH1 0x84 ADD PUSH2 0x187 JUMP JUMPDEST PUSH1 0x1 PUSH1 0x1 PUSH1 0xA0 SHL SUB DUP4 AND PUSH1 0x0 SWAP1 DUP2 MSTORE PUSH1 0x2 PUSH1 0x20 MSTORE PUSH1 0x40 SWAP1 KECCAK256 PUSH2 0x4BA SWAP1 PUSH2 0x537 JUMP JUMPDEST PUSH1 0x1 PUSH1 0x1 PUSH1 0xA0 SHL SUB DUP3 AND PUSH1 0x0 SWAP1 DUP2 MSTORE PUSH1 0x2 PUSH1 0x20 MSTORE PUSH1 0x40 SWAP1 KECCAK256 PUSH2 0x4DB SWAP1 PUSH2 0x548 JUMP JUMPDEST PUSH1 0x0 DUP2 DUP2 MSTORE PUSH1 0x1 PUSH1 0x20 MSTORE PUSH1 0x40 DUP1 DUP3 KECCAK256 DUP1 SLOAD PUSH1 0x1 PUSH1 0x1 PUSH1 0xA0 SHL SUB NOT AND PUSH1 0x1 PUSH1 0x1 PUSH1 0xA0 SHL SUB DUP7 DUP2 AND SWAP2 DUP3 OR SWAP1 SWAP3 SSTORE SWAP2 MLOAD DUP5 SWAP4 SWAP2 DUP8 AND SWAP2 PUSH32 0xDDF252AD1BE2C89B69C2B068FC378DAA952BA7F163C4A11628F55A4DF523B3EF SWAP2 LOG4 POP POP POP JUMP JUMPDEST DUP1 SLOAD PUSH2 0x544 SWAP1 PUSH1 0x1 PUSH2 0x565 JUMP JUMPDEST SWAP1 SSTORE JUMP JUMPDEST PUSH1 0x1 DUP2 PUSH1 0x0 ADD PUSH1 0x0 DUP3 DUP3 SLOAD PUSH2 0x55D SWAP2 SWAP1 PUSH2 0x6C8 JUMP JUMPDEST SWAP1 SWAP2 SSTORE POP POP POP JUMP JUMPDEST PUSH1 0x0 DUP3 DUP3 GT ISZERO PUSH2 0x5B7 JUMPI PUSH1 0x40 MLOAD PUSH3 0x461BCD PUSH1 0xE5 SHL DUP2 MSTORE PUSH1 0x20 PUSH1 0x4 DUP3 ADD MSTORE PUSH1 0x1E PUSH1 0x24 DUP3 ADD MSTORE PUSH32 0x536166656D6174683A207375627472616374696F6E206F766572666C6F770000 PUSH1 0x44 DUP3 ADD MSTORE PUSH1 0x64 ADD PUSH2 0x187 JUMP JUMPDEST PUSH1 0x0 PUSH2 0x5C3 DUP4 DUP6 PUSH2 0x6E0 JUMP JUMPDEST SWAP5 SWAP4 POP POP POP POP JUMP JUMPDEST PUSH1 0x0 PUSH1 0x20 DUP3 DUP5 SUB SLT ISZERO PUSH2 0x5DD JUMPI PUSH1 0x0 DUP1 REVERT JUMPDEST DUP2 CALLDATALOAD PUSH1 0x1 PUSH1 0x1 PUSH1 0xE0 SHL SUB NOT DUP2 AND DUP2 EQ PUSH2 0x5F5 JUMPI PUSH1 0x0 DUP1 REVERT JUMPDEST SWAP4 SWAP3 POP POP POP JUMP JUMPDEST DUP1 CALLDATALOAD PUSH1 0x1 PUSH1 0x1 PUSH1 0xA0 SHL SUB DUP2 AND DUP2 EQ PUSH2 0x613 JUMPI PUSH1 0x0 DUP1 REVERT JUMPDEST SWAP2 SWAP1 POP JUMP JUMPDEST PUSH1 0x0 DUP1 PUSH1 0x40 DUP4 DUP6 SUB SLT ISZERO PUSH2 0x62B JUMPI PUSH1 0x0 DUP1 REVERT JUMPDEST PUSH2 0x634 DUP4 PUSH2 0x5FC JUMP JUMPDEST SWAP5 PUSH1 0x20 SWAP4 SWAP1 SWAP4 ADD CALLDATALOAD SWAP4 POP POP POP JUMP JUMPDEST PUSH1 0x0 DUP1 PUSH1 0x0 PUSH1 0x60 DUP5 DUP7 SUB SLT ISZERO PUSH2 0x657 JUMPI PUSH1 0x0 DUP1 REVERT JUMPDEST PUSH2 0x660 DUP5 PUSH2 0x5FC JUMP JUMPDEST SWAP3 POP PUSH2 0x66E PUSH1 0x20 DUP6 ADD PUSH2 0x5FC JUMP JUMPDEST SWAP2 POP PUSH1 0x40 DUP5 ADD CALLDATALOAD SWAP1 POP SWAP3 POP SWAP3 POP SWAP3 JUMP JUMPDEST PUSH1 0x0 PUSH1 0x20 DUP3 DUP5 SUB SLT ISZERO PUSH2 0x690 JUMPI PUSH1 0x0 DUP1 REVERT JUMPDEST POP CALLDATALOAD SWAP2 SWAP1 POP JUMP JUMPDEST PUSH1 0x0 PUSH1 0x20 DUP3 DUP5 SUB SLT ISZERO PUSH2 0x6A9 JUMPI PUSH1 0x0 DUP1 REVERT JUMPDEST PUSH2 0x5F5 DUP3 PUSH2 0x5FC JUMP JUMPDEST PUSH4 0x4E487B71 PUSH1 0xE0 SHL PUSH1 0x0 MSTORE PUSH1 0x11 PUSH1 0x4 MSTORE PUSH1 0x24 PUSH1 0x0 REVERT JUMPDEST PUSH1 0x0 DUP3 NOT DUP3 GT ISZERO PUSH2 0x6DB JUMPI PUSH2 0x6DB PUSH2 0x6B2 JUMP JUMPDEST POP ADD SWAP1 JUMP JUMPDEST PUSH1 0x0 DUP3 DUP3 LT ISZERO PUSH2 0x6F2 JUMPI PUSH2 0x6F2 PUSH2 0x6B2 JUMP JUMPDEST POP SUB SWAP1 JUMP INVALID LOG2 PUSH5 0x6970667358 0x22 SLT KECCAK256 0x2D 0xC0 SWAP4 0x21 0xD5 SWAP8 ORIGIN 0xFB 0xE4 SWAP6 PUSH1 0xDE XOR 0x4E JUMP 0xBB MSTORE8 0x4B 0xD8 0xB4 0x4C DUP11 CALLCODE ADD ADD SWAP6 0xD4 PUSH32 0x549CE65264736F6C634300080A00330000000000000000000000000000000000 ",
  "sha1": "a85a14a097d829baf6295aac9af3dc353ff12a7b",
  "source": "// SPDX-License-Identifier: MIT\n\npragma solidity ^0.8.10;\n\n/*\n Crear funcion para mintear tokens\n        1. NFT debe apuntar a una direccion\n        2. Mantener registro de los ids de los tokens\n        3. Mantener registro del dueno (direccion) del token id\n        4. Cuantos tokens tiene un dueno (direccion)\n        5. crear un evento que emita un registro de transferencia - direcciÃ³n del contrato, \n         dÃ³nde se estÃ¡ minteo, el id\n*/\n\nimport \"./ERC165.sol\";\nimport \"../interfaces/IERC721.sol\";\nimport \"./libraries/Counters.sol\";\n\ncontract ERC721 is ERC165, IERC721 {\n    using SafeMath for uint256;\n    using Counters for Counters.Counter;\n\n    mapping(uint256 => address) private _tokenOwner;\n\n    mapping(address => Counters.Counter) private _ownedTokensCount;\n\n    // direccion verificar tokens aprovados\n    mapping(uint256 => address) private _tokenApprovals;\n\n    constructor() {\n        _registerInterface(\n            bytes4(\n                keccak256(\"balanceOf(bytes4)\") ^\n                    keccak256(\"ownerOf(bytes4)\") ^\n                    keccak256(\"transferFrom(bytes4)\")\n            )\n        );\n    }\n\n    function balanceOf(address _owner) public view override returns (uint256) {\n        require(_owner != address(0), \"Address is zero\");\n        return _ownedTokensCount[_owner].current();\n    }\n\n    function ownerOf(uint256 _tokenId) public view override returns (address) {\n        address owner = _tokenOwner[_tokenId];\n        require(owner != address(0), \"Address is zero\");\n        return owner;\n    }\n\n    function _exists(uint256 tokenId) internal view returns (bool) {\n        address owner = _tokenOwner[tokenId];\n        return owner != address(0);\n    }\n\n    function _mint(address to, uint256 tokenId) internal virtual {\n        // revisar que el address no sea cero!\n        require(to != address(0), \"ERC721 minting to zero address\");\n        // tokenId debe No existir anteriormente\n        require(!_exists(tokenId), \"ERC721 already exists\");\n\n        //Apuntar a direccoin del dueno\n        _tokenOwner[tokenId] = to;\n        // Cuantos tokens tiene ese dueno\n        _ownedTokensCount[to].increment();\n\n        emit Transfer(address(0), to, tokenId);\n    }\n\n    // debemos llamar esta funcion para aumetnar seguridad\n    function _transferFrom(\n        address _from,\n        address _to,\n        uint256 _tokenId\n    ) internal {\n        require(\n            _to != address(0),\n            \"Error - ERC721 Transfer to the zero address\"\n        );\n        require(\n            ownerOf(_tokenId) == _from,\n            \"Trying to transfer a token the address does not own!\"\n        );\n\n        _ownedTokensCount[_from].decrement();\n        _ownedTokensCount[_to].increment();\n\n        _tokenOwner[_tokenId] = _to;\n\n        emit Transfer(_from, _to, _tokenId);\n    }\n\n    function transferFrom(\n        address _from,\n        address _to,\n        uint256 _tokenId\n    ) public override {\n        require(isApprovedOrOwner(msg.sender, _tokenId));\n        _transferFrom(_from, _to, _tokenId);\n    }\n\n    function approve(address _to, uint256 tokenId) public {\n        address owner = ownerOf(tokenId);\n        require(_to != owner, \"Error - approval to current owner\");\n        require(msg.sender == owner, \"Current caller must be owner\");\n        _tokenApprovals[tokenId] = _to;\n        emit Approval(owner, _to, tokenId);\n    }\n\n    function isApprovedOrOwner(\n        address spender,\n        uint256 tokenId\n    ) internal view returns (bool) {\n        require(_exists(tokenId), \"token does not exist\");\n        address owner = ownerOf(tokenId);\n        return (spender == owner);\n    }\n}\n",
  "sourcePath": "contracts/ERC721.sol",
  "type": "contract"
}