{
  "abi": [
    {
      "inputs": [
        {
          "internalType": "string",
          "name": "named",
          "type": "string"
        },
        {
          "internalType": "string",
          "name": "symbolified",
          "type": "string"
        }
      ],
      "stateMutability": "nonpayable",
      "type": "constructor"
    },
    {
      "inputs": [],
      "name": "name",
      "outputs": [
        {
          "internalType": "string",
          "name": "",
          "type": "string"
        }
      ],
      "stateMutability": "view",
      "type": "function"
    },
    {
      "inputs": [
        {
          "internalType": "bytes4",
          "name": "interfaceID",
          "type": "bytes4"
        }
      ],
      "name": "supportsInterface",
      "outputs": [
        {
          "internalType": "bool",
          "name": "",
          "type": "bool"
        }
      ],
      "stateMutability": "view",
      "type": "function"
    },
    {
      "inputs": [],
      "name": "symbol",
      "outputs": [
        {
          "internalType": "string",
          "name": "",
          "type": "string"
        }
      ],
      "stateMutability": "view",
      "type": "function"
    }
  ],
  "bytecode": "608060405234801561001057600080fd5b5060405161057838038061057883398101604081905261002f9161028e565b6100587f01ffc9a7a5cef8baa21ed3c5c0d7e23accb804b619e9333b597f47a0d84076e26100b0565b6100817f6c5b7360b116f8fd1d2a1ccb905de5c6a9e91e31b88b8db3cd997e184f357e9f6100b0565b8151610094906001906020850190610133565b5080516100a8906002906020840190610133565b50505061032c565b6001600160e01b0319808216141561010e5760405162461bcd60e51b815260206004820152601960248201527f496e76616c696420696e74657266616365207265717565737400000000000000604482015260640160405180910390fd5b6001600160e01b0319166000908152602081905260409020805460ff19166001179055565b82805461013f906102f1565b90600052602060002090601f01602090048101928261016157600085556101a7565b82601f1061017a57805160ff19168380011785556101a7565b828001600101855582156101a7579182015b828111156101a757825182559160200191906001019061018c565b506101b39291506101b7565b5090565b5b808211156101b357600081556001016101b8565b634e487b7160e01b600052604160045260246000fd5b600082601f8301126101f357600080fd5b81516001600160401b038082111561020d5761020d6101cc565b604051601f8301601f19908116603f01168101908282118183101715610235576102356101cc565b8160405283815260209250868385880101111561025157600080fd5b600091505b838210156102735785820183015181830184015290820190610256565b838211156102845760008385830101525b9695505050505050565b600080604083850312156102a157600080fd5b82516001600160401b03808211156102b857600080fd5b6102c4868387016101e2565b935060208501519150808211156102da57600080fd5b506102e7858286016101e2565b9150509250929050565b600181811c9082168061030557607f821691505b6020821081141561032657634e487b7160e01b600052602260045260246000fd5b50919050565b61023d8061033b6000396000f3fe608060405234801561001057600080fd5b50600436106100415760003560e01c806301ffc9a71461004657806306fdde031461008857806395d89b411461009d575b600080fd5b610073610054366004610146565b6001600160e01b03191660009081526020819052604090205460ff1690565b60405190151581526020015b60405180910390f35b6100906100a5565b60405161007f9190610177565b610090610137565b6060600180546100b4906101cc565b80601f01602080910402602001604051908101604052809291908181526020018280546100e0906101cc565b801561012d5780601f106101025761010080835404028352916020019161012d565b820191906000526020600020905b81548152906001019060200180831161011057829003601f168201915b5050505050905090565b6060600280546100b4906101cc565b60006020828403121561015857600080fd5b81356001600160e01b03198116811461017057600080fd5b9392505050565b600060208083528351808285015260005b818110156101a457858101830151858201604001528201610188565b818111156101b6576000604083870101525b50601f01601f1916929092016040019392505050565b600181811c908216806101e057607f821691505b6020821081141561020157634e487b7160e01b600052602260045260246000fd5b5091905056fea2646970667358221220b27cb2f250468f6e5a3c4026e59b4a165f549f7fc3e081903af8ed1d9c57784e64736f6c634300080a0033",
  "bytecodeSha1": "c929da2a70d0cdc50796bbfe574dae8658f858fd",
  "compiler": {
    "evm_version": "istanbul",
    "optimizer": {
      "enabled": true,
      "runs": 200
    },
    "version": "0.8.10+commit.fc410830"
  },
  "contractName": "ERC721Metadata",
  "language": "Solidity",
  "natspec": {
    "kind": "dev",
    "methods": {},
    "version": 1
  },
  "opcodes": "PUSH1 0x80 PUSH1 0x40 MSTORE CALLVALUE DUP1 ISZERO PUSH2 0x10 JUMPI PUSH1 0x0 DUP1 REVERT JUMPDEST POP PUSH1 0x4 CALLDATASIZE LT PUSH2 0x41 JUMPI PUSH1 0x0 CALLDATALOAD PUSH1 0xE0 SHR DUP1 PUSH4 0x1FFC9A7 EQ PUSH2 0x46 JUMPI DUP1 PUSH4 0x6FDDE03 EQ PUSH2 0x88 JUMPI DUP1 PUSH4 0x95D89B41 EQ PUSH2 0x9D JUMPI JUMPDEST PUSH1 0x0 DUP1 REVERT JUMPDEST PUSH2 0x73 PUSH2 0x54 CALLDATASIZE PUSH1 0x4 PUSH2 0x146 JUMP JUMPDEST PUSH1 0x1 PUSH1 0x1 PUSH1 0xE0 SHL SUB NOT AND PUSH1 0x0 SWAP1 DUP2 MSTORE PUSH1 0x20 DUP2 SWAP1 MSTORE PUSH1 0x40 SWAP1 KECCAK256 SLOAD PUSH1 0xFF AND SWAP1 JUMP JUMPDEST PUSH1 0x40 MLOAD SWAP1 ISZERO ISZERO DUP2 MSTORE PUSH1 0x20 ADD JUMPDEST PUSH1 0x40 MLOAD DUP1 SWAP2 SUB SWAP1 RETURN JUMPDEST PUSH2 0x90 PUSH2 0xA5 JUMP JUMPDEST PUSH1 0x40 MLOAD PUSH2 0x7F SWAP2 SWAP1 PUSH2 0x177 JUMP JUMPDEST PUSH2 0x90 PUSH2 0x137 JUMP JUMPDEST PUSH1 0x60 PUSH1 0x1 DUP1 SLOAD PUSH2 0xB4 SWAP1 PUSH2 0x1CC JUMP JUMPDEST DUP1 PUSH1 0x1F ADD PUSH1 0x20 DUP1 SWAP2 DIV MUL PUSH1 0x20 ADD PUSH1 0x40 MLOAD SWAP1 DUP2 ADD PUSH1 0x40 MSTORE DUP1 SWAP3 SWAP2 SWAP1 DUP2 DUP2 MSTORE PUSH1 0x20 ADD DUP3 DUP1 SLOAD PUSH2 0xE0 SWAP1 PUSH2 0x1CC JUMP JUMPDEST DUP1 ISZERO PUSH2 0x12D JUMPI DUP1 PUSH1 0x1F LT PUSH2 0x102 JUMPI PUSH2 0x100 DUP1 DUP4 SLOAD DIV MUL DUP4 MSTORE SWAP2 PUSH1 0x20 ADD SWAP2 PUSH2 0x12D JUMP JUMPDEST DUP3 ADD SWAP2 SWAP1 PUSH1 0x0 MSTORE PUSH1 0x20 PUSH1 0x0 KECCAK256 SWAP1 JUMPDEST DUP2 SLOAD DUP2 MSTORE SWAP1 PUSH1 0x1 ADD SWAP1 PUSH1 0x20 ADD DUP1 DUP4 GT PUSH2 0x110 JUMPI DUP3 SWAP1 SUB PUSH1 0x1F AND DUP3 ADD SWAP2 JUMPDEST POP POP POP POP POP SWAP1 POP SWAP1 JUMP JUMPDEST PUSH1 0x60 PUSH1 0x2 DUP1 SLOAD PUSH2 0xB4 SWAP1 PUSH2 0x1CC JUMP JUMPDEST PUSH1 0x0 PUSH1 0x20 DUP3 DUP5 SUB SLT ISZERO PUSH2 0x158 JUMPI PUSH1 0x0 DUP1 REVERT JUMPDEST DUP2 CALLDATALOAD PUSH1 0x1 PUSH1 0x1 PUSH1 0xE0 SHL SUB NOT DUP2 AND DUP2 EQ PUSH2 0x170 JUMPI PUSH1 0x0 DUP1 REVERT JUMPDEST SWAP4 SWAP3 POP POP POP JUMP JUMPDEST PUSH1 0x0 PUSH1 0x20 DUP1 DUP4 MSTORE DUP4 MLOAD DUP1 DUP3 DUP6 ADD MSTORE PUSH1 0x0 JUMPDEST DUP2 DUP2 LT ISZERO PUSH2 0x1A4 JUMPI DUP6 DUP2 ADD DUP4 ADD MLOAD DUP6 DUP3 ADD PUSH1 0x40 ADD MSTORE DUP3 ADD PUSH2 0x188 JUMP JUMPDEST DUP2 DUP2 GT ISZERO PUSH2 0x1B6 JUMPI PUSH1 0x0 PUSH1 0x40 DUP4 DUP8 ADD ADD MSTORE JUMPDEST POP PUSH1 0x1F ADD PUSH1 0x1F NOT AND SWAP3 SWAP1 SWAP3 ADD PUSH1 0x40 ADD SWAP4 SWAP3 POP POP POP JUMP JUMPDEST PUSH1 0x1 DUP2 DUP2 SHR SWAP1 DUP3 AND DUP1 PUSH2 0x1E0 JUMPI PUSH1 0x7F DUP3 AND SWAP2 POP JUMPDEST PUSH1 0x20 DUP3 LT DUP2 EQ ISZERO PUSH2 0x201 JUMPI PUSH4 0x4E487B71 PUSH1 0xE0 SHL PUSH1 0x0 MSTORE PUSH1 0x22 PUSH1 0x4 MSTORE PUSH1 0x24 PUSH1 0x0 REVERT JUMPDEST POP SWAP2 SWAP1 POP JUMP INVALID LOG2 PUSH5 0x6970667358 0x22 SLT KECCAK256 0xB2 PUSH29 0xB2F250468F6E5A3C4026E59B4A165F549F7FC3E081903AF8ED1D9C5778 0x4E PUSH5 0x736F6C6343 STOP ADDMOD EXP STOP CALLER ",
  "sha1": "569906ad0bbb39c91840689721257a4dfb38de55",
  "source": "// SPDX-License-Identifier: MIT\n\npragma solidity ^0.8.10;\n\nimport \"../interfaces/IERC721Metadata.sol\";\nimport \"./ERC165.sol\";\n\ncontract ERC721Metadata is IERC721Metadata, ERC165 {\n    string private _name;\n    string private _symbol;\n\n    constructor(string memory named, string memory symbolified) {\n        _registerInterface(\n            bytes4(keccak256(\"name(bytes4)\") ^ keccak256(\"symbol(bytes4)\"))\n        );\n\n        _name = named;\n        _symbol = symbolified;\n    }\n\n    function name() external view returns (string memory) {\n        return _name;\n    }\n\n    function symbol() external view returns (string memory) {\n        return _symbol;\n    }\n}\n",
  "sourcePath": "contracts/ERC721Metadata.sol",
  "type": "contract"
}